:020000040800F2
:1000000070060020650100088B0100088D010008C2
:1000100000000000000000000000000000000000E0
:100020000000000000000000000000008F01000838
:10003000000000000000000091010008930100088A
:100040009501000895010008950100089501000838
:100050009501000895010008950100089501000828
:100060009501000895010008950100089501000818
:100070009501000895010008950100089501000808
:100080009501000800000000000000009501000834
:1000900000000000950100083D06000895010008D9
:1000A0000000000095010008950100089501000876
:1000B0009501000800000000950100089501000866
:1000C00000F002F800F03EF80CA030C80838241800
:1000D0002D18A246671EAB4654465D46AC4201D180
:1000E00000F030F87E460F3E0FCCB6460126334274
:1000F00000D0FB1AA246AB4633431847B8080000AD
:10010000D8080000103A02D378C878C1FAD852074C
:1001100001D330C830C101D504680C6070470000BD
:100120000023002400250026103A01D378C1FBD813
:10013000520700D330C100D50B6070471FB51FBDFB
:1001400010B510BD00F0F8F81146FFF7F7FF00F00A
:10015000C1FB00F010F903B4FFF7F2FF03BC00F09D
:1001600017F900000F4880F308880F480168090E4E
:100170000E4A914205D10E480E4901600E480F49C2
:1001800001600F4880470F480047FEE7FEE7FEE7A3
:10019000FEE7FEE7FEE700000B480C490C4A0D4B5A
:1001A0007047000070060020040000001F000000DF
:1001B0001810024001000000000001400000000093
:1001C000C9050008C100000870000020700600206A
:1001D0007002002070020020002203098B422CD301
:1001E000030A8B4211D300239C464EE003460B4387
:1001F0003CD4002243088B4231D303098B421CD3E9
:10020000030A8B4201D394463FE0C3098B4201D3DA
:10021000CB01C01A524183098B4201D38B01C01A12
:10022000524143098B4201D34B01C01A5241030989
:100230008B4201D30B01C01A5241C3088B4201D338
:10024000CB00C01A524183088B4201D38B00C01AE5
:10025000524143088B4201D34B00C01A5241411A0C
:1002600000D201465241104670475DE0CA0F00D0EF
:100270004942031000D34042534000229C460309E8
:100280008B422DD3030A8B4212D3FC22890112BA6E
:10029000030A8B420CD3890192118B4208D3890146
:1002A00092118B4204D389013AD0921100E089095E
:1002B000C3098B4201D3CB01C01A524183098B423F
:1002C00001D38B01C01A524143098B4201D34B0128
:1002D000C01A524103098B4201D30B01C01A52418B
:1002E000C3088B4201D3CB00C01A524183088B4212
:1002F00001D38B00C01A5241D9D243088B4201D39B
:100300004B00C01A5241411A00D201466346524185
:100310005B10104601D34042002B00D54942704784
:1003200063465B1000D3404201B50020C046C04682
:1003300002BD704770477047754600F025F8AE461D
:10034000050069465346C008C000854618B020B570
:10035000FFF722FF60BC00274908B6460026C0C54B
:10036000C0C5C0C5C0C5C0C5C0C5C0C5C0C5403D6D
:1003700049008D46704710B50446C046C046204629
:10038000FFF7E9FE10BD0000004870471000002094
:1003900001491820ABBEFEE7260002007047FEB5FB
:1003A00007460D460124002600BF0A2F0CDB0A2158
:1003B0003846FFF71BFFCEB2684606550A2138467D
:1003C000FFF714FF074602E069460F550027601C3F
:1003D000C4B2002FE9D1601EC4B2002D16D1022C88
:1003E0000ADA0220001BC6B200BF002000F0CEF8DF
:1003F000701EC6B2002EF8D100BF6946085D00F03D
:100400008DF8601EC4B2002CF7D116E0012505E07E
:100410006946485D00F082F8681CC5B2A542F7DD68
:10042000022C0ADA0220001BC6B200BF002000F036
:10043000ADF8701EC6B2002EF8D10920C006806942
:10044000102108430921C90688610846806A1021E5
:1004500008430921C9068862FEBDFEB505460E4661
:100460000124002700BF102D0FDB2846E917090FD4
:10047000091809110901691ACFB2684607552846BB
:10048000E917090F09180D1102E069460D550025FD
:10049000601CC4B2002DE6D1601EC4B2002E16D17D
:1004A000022C0ADA0220001BC7B200BF002000F0B5
:1004B0006DF8781EC7B2002FF8D100BF6946085DFD
:1004C00000F02CF8601EC4B2002CF7D116E0012613
:1004D00005E06946885D00F021F8701CC6B2A642AE
:1004E000F7DD022C0ADA0220001BC7B200BF002091
:1004F00000F04CF8781EC7B2002FF8D10920C006D2
:100500008069102108430921C90688610846806A6C
:10051000102108430921C9068862FEBD00B50346C3
:100520000249C85C00F032F800BD0000A0090008D4
:1005300010B5FF2300201449087020E0002404E0D7
:10054000184600F023F8601CC4B2022CF8DB5B10E4
:100550000920C0068069102108430921C906886165
:100560000846806A102108430921C9068862642070
:1005700000F0E8F804480078401C0349087002487D
:1005800000780928DADB10BD00000020014600BF1A
:100590000C488068022210400028F9D009480173F5
:1005A00000BF08488068802210400028F9D100BFB1
:1005B00004488068C007C00F0028F9D00148007BBC
:1005C00001207047003001401948006801210843AC
:1005D00017490860084640681649084014494860B1
:1005E0000846006814490840114908600846006838
:1005F0000121890488430E490860084640683F216C
:10060000090488430A4948600846C06A0009000195
:10061000C8620846006BFF21D4318843044908634F
:100620000846406B400840004863002088607047DF
:10063000001002400CB8FF08FFFFF6FE00B50748A7
:100640000069C007C00F002807D000F009F8034870
:100650000069400840000149086100BD00480140B0
:1006600015480088002804D013480088401E12490D
:10067000088012480088002809D1FF20F5300F4972
:1006800008800F484069012148400D4948610D48E4
:100690000088002805D1C8200A49088001200A499D
:1006A000087006480088401E0449088005480088F4
:1006B000401E044908807047080000200A000020FE
:1006C000000400480C0000200100002010B50028A4
:1006D00019DB1A4A03231B02D21883089B00D25845
:1006E0008307DC0EFF23A3409A438B071B0E84076E
:1006F000E40EA3401A43114B032424021B1984085F
:10070000A4001A5118E00E4A03071B0F083B9B0870
:100710009B00D2588307DC0EFF23A3409A438B072C
:100720001B0E8407E40EA3401A43054B0407240F55
:10073000083CA408A4001A5110BD000000E100E02C
:100740001CED00E00349088000BF02490988002928
:10075000FBD170470800002010B55748806901217F
:1007600089040843544988615448554988620120E6
:10077000C86208460068912108435149086008464C
:10078000C068012108434E49C8601620002805DBD7
:10079000C206D20E012191404A4A116000BF0521D4
:1007A0001620FFF793FF444840690121890408435C
:1007B00041494861444800680121084342490860B2
:1007C0003D484069C90108433B4948610920C006CA
:1007D0000068802108430921C90608600846006AAC
:1007E0000121490308430921C90608623248C0694A
:1007F000012108433049C861012081078862142023
:10080000C8620020314908600806C0690D21C9028C
:100810000843C904C8610846006A03210903084364
:1008200001218907086208460068012108438907F9
:1008300008600846406901210843890748611E484D
:100840004069491308431C4948610920C006806873
:10085000FF21090208430921C9068860084600688B
:10086000A92109020843C90408600846006A086211
:1008700008460068FF21013108430921C9060860C4
:100880000D4880690121090308430B49886110481C
:100890000068C521890008430D4908600846406882
:1008A000891408430A494860084600684021084303
:1008B0000749086010BD0000001002403F1F000003
:1008C0000048014000E100E0000400484000004012
:1008D00000300140FFF740FF0A202D490860FFF774
:1008E00027FE00202B4908802B4908704FE02A483A
:1008F000007800282BD029480078002827D114211F
:1009000024480088FFF772FC002907D014212148F1
:100910000088FFF76BFC1E48016002E014201C49B0
:10092000086001211B480088FFF739FD194800883D
:10093000401C1849088008460088632804DD002010
:1009400008800120154908700020134908701248DA
:10095000007800281BD011480078002817D00A2002
:100960000B49086001210B480088FFF776FD094814
:100970000088401C0749088008460088FF2803DDDE
:100980000020088005490870002003490870AEE780
:100990004000004004000020010000200200002070
:1009A0003F065B4F666D7D077F6F777C395E79719F
:1009B00063400880D40900080000002010000000F7
:1009C00004010008E409000810000020600600008F
:1009D00020010008000000000000000000000000EE
:0409E0000000000013
:040000050800016589
:00000001FF
